:100000000C9431000C944E000C944E000C944E0055
:100010000C944E000C944E000C944E000C944E0028
:100020000C944E000C944E000C9438060C94270649
:100030000C944E000C944E000C944E000C944E0008
:100040000C944E000C944E000C944E000C944E00F8
:100050000C944E00470572059E05AC05B205DF0500
:100060000B0611241FBECFE5D8E0DEBFCDBF11E0E7
:10007000A0E6B0E0ECE6FEE002C005900D92A032F2
:10008000B107D9F721E0A0E2B1E001C01D92AB3386
:10009000B207E1F70E94ED040C9434070C940000C1
:1000A00017B816B887B1806487B986B1876086B9FA
:1000B00086B1806886B9089597B1987F97B997B14E
:1000C000892B87B986B1806486B93699FECF84B111
:1000D00095B10895EF920F93FC0131832083028341
:1000E000DB018C9121E030E002C0220F331F0A9522
:1000F000E2F7922F909589238C93DA018C91282B2B
:100100002C931382E4820F91EF900895FC01848177
:100110009FEF980F9230D8F4A081B1812C9130E0FC
:10012000028002C0359527950A94E2F720FD06C0AB
:1001300093819A3020F49F5F938301C0138293814F
:100140009A3039F4813039F49BE09383089580E04C
:10015000089580E0089581E0089580FF04C095B37C
:10016000906195BB03C095B39F7E95BB81FF04C092
:1001700095B3906295BB03C095B39F7D95BB82FFFD
:1001800004C095B3906495BB03C095B39F7B95BBAA
:1001900083FF04C085B3806885BB089585B38F77DE
:1001A00085BB0895CF93C82F85B3886085BB8C2FFE
:1001B00082958F700E94AD0085B3877F85BB85B324
:1001C000886085BB8C2F0E94AD0085B3877F85BB7F
:1001D00087EC90E00197F1F700C00000CF910895FF
:1001E00095B39B7F95BB0E94D200089595B3946010
:1001F00095BB0E94D2000895CF93DF93EC0103C01A
:1002000021960E94F60088818111FACFDF91CF916B
:100210000895CF93DF93CDB7DEB72C970FB6F89440
:10022000DEBF0FBECDBFFC0140E050E09F01ADEC52
:10023000BCEC0E9461069695879596958795969554
:1002400087959C01220F331F880F991F880F991FD4
:10025000880F991F820F931F9F01281B390BC9011B
:10026000A1E0B0E0AC0FBD1FA40FB51F805D8C9363
:100270009F01ADECBCEC0E946106FC01F695E79590
:10028000F695E795F695E7954F5F5F4F309771F6D6
:10029000E1E0F0E0EC0FFD1FE40FF51F1082E7E056
:1002A000F0E0EC0FFD1FE40FF51F108280E090E0FE
:1002B00013C0FA01E81BF90B319721E030E02C0F55
:1002C0003D1FE20FF31F2081E7E0F0E0EC0FFD1F80
:1002D000E80FF91F208301968417950750F3CE018C
:1002E00007960E94FC002C960FB6F894DEBF0FBE56
:1002F000CDBFDF91CF91089590E4699F800D1124C7
:1003000080680E94F000089581E00E94F0008FE371
:100310009FE10197F1F700C000000895CF9384B3E7
:10032000806184BB84B3806284BB84B3806484BBFB
:1003300084B3806884BB84B3886084BB84B38460E6
:1003400084BB8FE59AEE0197F1F700C0000085B3FA
:100350008B7F85BB85B3877F85BBC0E010C085B32D
:10036000886085BB83E00E94AD0085B3877F85BB35
:100370008FE19EE40197F1F700C00000CF5FC3302A
:1003800070F385B3886085BB82E00E94AD0085B3C1
:10039000877F85BB8FE99FE00197F1F700C00000E0
:1003A00088E20E94F00088E00E94F00081E00E9454
:1003B000F0008FE39FE10197F1F700C0000086E0B5
:1003C0000E94F0008CE00E94F000CF910895CF933E
:1003D000DF930E94D00667E070E00E944706FC01B0
:1003E000EE0FFF1FEC57FF4F8081918190933A01F0
:1003F0008093390111C00E94D00667E070E00E942E
:100400004706FC01EE0FFF1FEC57FF4F80819181E3
:1004100090933A0180933901A0913901B0913A014A
:100420008091680090916900A817B90721F3B093F3
:100430006900A093680086E08093640020E029C0F2
:10044000222321F031978E179F0751F4E22FF0E01D
:10045000ED01C80FD91F8881E75DFE4F808318C06A
:100460003C91ED01C80FD91F8881381729F0EA0F98
:10047000FB1F9081891306C0E22FF0E0E75DFE4F7D
:10048000808306C0E22FF0E0E75DFE4F8FE58083BA
:100490002F5F822F90E0FD0101900020E9F7319756
:1004A000EA1BFB0BE817F90758F6E75DFE4F1082D1
:1004B0001092260180916A0080936500DF91CF91B0
:1004C000089560E080E00E947C0189E291E00E9452
:1004D000FC00E9E2F1E001900020E9F73197E952F0
:1004E000F1403A9788F460E08FE00E947C01E9E2F5
:1004F000F1E0DF010D900020E9F7CD01019789526D
:1005000091400E94090110C060E08EE00E947C01D1
:10051000E9E2F1E0DF010D900020E9F7CD0101975C
:10052000895291400E94090161E08FE00E947C01A4
:100530008091640090E00E94090161E080E00E94E7
:100540007C01E0912601E931E9F5F0E0E759FF4F40
:1005500080810E94F60086EA90E00E94FC00809173
:10056000240190912501833F914020F48091650002
:100570000E94F6008091240190912501843F9140D2
:1005800020F086EA90E00E94FC0080912401909186
:100590002501883E934020F01092250110922401FD
:1005A00080912401909125010196909325018093DB
:1005B000240186EA90E00E94FC0080916A000E947B
:1005C000F6000895E1113FC0809183000E94F6007B
:1005D00086EA90E00E94FC00809124019091250120
:1005E000833F914020F4809165000E94F600809145
:1005F000240190912501843F914020F086EA90E00B
:100600000E94FC008091240190912501883E934036
:1006100020F01092250110922401809124019091E4
:1006200025010196909325018093240186EA90E0AC
:100630000E94FC00E0912601F0E0E559FF4F808127
:100640000E94F6000895F0E0E759FF4F80810E9474
:10065000F60086EA90E00E94FC00809124019091CF
:100660002501833F914020F4809165000E94F600AF
:100670008091240190912501843F914020F086EAE9
:1006800090E00E94FC008091240190912501883E19
:10069000934020F0109225011092240180912401B2
:1006A000909125010196909325018093240186EA7B
:1006B00090E00E94FC00E0912601F0E0E559FF4F38
:1006C00080810E94F600089580912601893120F4EE
:1006D0008F5F8093260102C010922601E0912601CF
:1006E000F0E0E659FF4F8081809365000895809186
:1006F0002601882321F081508093260103C089E1DF
:1007000080932601E0912601F0E0E659FF4F8081B9
:1007100080936500089520E030E013C040913901D6
:1007200050913A01FA01E80FF91F9081809165001C
:10073000981306C0E22FF0E0E75DFE4F808331E0C2
:100740002F5F822F90E0E9E2F1E001900020E9F7CD
:100750003197E952F14031978E179F07F8F2311126
:1007600005C080916400815080936400089590E0FA
:1007700081E00CC0E92FF0E0E75DFE4F4081FD0114
:10078000E20FF31F2081421380E09F5F292F30E0AA
:10079000A0913901B0913A01FD0101900020E9F7E3
:1007A0003197EA1BFB0B31972E173F0718F308957B
:1007B00060E080E00E947C0182E990E00E94FC0001
:1007C00061E080E00E947C018BE990E00E94FC00E7
:1007D00061E08CE00E947C0188EA90E00E94FC00CD
:1007E00080912801811133C061E08CE00E947C017E
:1007F0008091220190912301833F914040F4E09148
:100800002801F0E0EA59FF4F80810E94F6008091B4
:10081000220190912301843F914020F086EA90E0EC
:100820000E94FC008091220190912301883E934018
:1008300020F01092230110922201809122019091C8
:10084000230101969093230180932201089561E092
:100850008EE00E947C018091220190912301833FD0
:10086000914040F4E0912801F0E0EA59FF4F808187
:100870000E94F6008091220190912301843F9140D3
:1008800020F086EA90E00E94FC0080912201909185
:100890002301883E934020F0109223011092220100
:1008A00080912201909123010196909323018093DE
:1008B0002201089560E080E00E947C018CEA90E0D3
:1008C0000E94FC0061E080E00E947C018BE990E0E6
:1008D0000E94FC0061E08CE00E947C0188EA90E0CC
:1008E0000E94FC0080912801811133C061E08CE0FE
:1008F0000E947C018091200190912101833F9140D1
:1009000040F4E0912801F0E0EA59FF4F80810E9415
:10091000F6008091200190912101843F914020F0C8
:1009200086EA90E00E94FC008091200190912101D4
:10093000883E934020F01092210110922001809176
:100940002001909121010196909321018093200133
:10095000089561E08EE00E947C01809120019091D9
:100960002101833F914040F4E0912801F0E0EA59F1
:10097000FF4F80810E94F60080912001909121011B
:10098000843F914020F086EA90E00E94FC00809134
:10099000200190912101883E934020F01092210186
:1009A0001092200180912001909121010196909355
:1009B000210180932001089560E080E00E947C0185
:1009C00086EB90E00E94FC0061E080E00E947C01E8
:1009D00086EC90E00E94FC000895CF93DF93CDB7A2
:1009E000DEB767970FB6F894DEBF0FBECDBF0E948B
:1009F0001B0678940E94500080E00E945C000E94D8
:100A0000D50610E01BC0812F90E09C01220F331F00
:100A1000220F331F820F931FEE24E394012F26E34E
:100A200030E048E350E067E370E0E1E0F0E0EC0F35
:100A3000FD1F8E0F9F1F0E946A001F5F143018F366
:100A4000CE0101969E8B8D8B1F8A0E948E010E9483
:100A500084010E94E701809127018823E1F310922D
:100A60002701CE0145960E943605F5CFCF93DF933F
:100A7000DC011296EC914E2F50E04730510508F002
:100A8000D7C0EC01FA01E65DFF4F0C945B060E94B3
:100A90006102888199810E948600882321F00E944A
:100AA000770381E08A838881998105960E94860078
:100AB000882321F00E94640381E08A8388819981E0
:100AC0000F960E948600882311F083E08A83888134
:100AD00099810A960E948600882309F4A9C082E0C1
:100AE0008A83A6C00E946102888199810E94860043
:100AF00081110E9477038881998105960E94860062
:100B000081110E946403888199810A960E9486005F
:100B1000882311F082E08A83888199810F960E9450
:100B20008600882311F083E08A838091640081111C
:100B30007FC00E94840185E08A837AC00E948B0373
:100B40000E94B703882329F00E94840184E08A83ED
:100B50006FC081E08A836CC00E9484010E94E7011B
:100B60001A8266C00E94D803888199810E948600FB
:100B70008111109228018881998105960E94860032
:100B8000882319F081E080932801888199810A9651
:100B90000E948600882309F44BC0809128018111AE
:100BA00007C00E9484011092280183E08A8340C01C
:100BB0000E9484011092280186E08A8339C00E9435
:100BC0005A04888199810E9486008111109228011F
:100BD0008881998105960E948600882319F081E01A
:100BE00080932801888199810A960E948600882333
:100BF000F9F080912801811107C00E9484011092B0
:100C0000280183E08A8314C00E9484011092280185
:100C100086E08A830DC00E94DC04888199810F964A
:100C20000E948600882321F00E94840183E08A8349
:100C3000DF91CF91089589EF8CBF83B7836083BF25
:100C400083B7886083BF89B7826089BF08951F9288
:100C50000F920FB60F9211248F9386E082BF81E02E
:100C6000809327018F910F900FBE0F901F901895C2
:100C70001F920F920FB60F9211248F9381E08093F1
:100C800027018F910F900FBE0F901F90189597FB23
:100C9000072E16F4009407D077FD09D00E94700645
:100CA00007FC05D03EF4909581959F4F089570956F
:100CB00061957F4F0895EE0FFF1F0590F491E02D91
:100CC0000994A29FB001B39FC001A39F700D811D25
:100CD0001124911DB29F700D811D1124911D089545
:100CE000AA1BBB1B51E107C0AA1FBB1FA617B70752
:100CF00010F0A61BB70B881F991F5A95A9F780956E
:100D00009095BC01CD0108958F929F92AF92BF92B2
:100D1000CF92DF92EF92FF92CF93DF93EC01688145
:100D200079818A819B81611571058105910521F485
:100D300064E279ED8BE597E02DE133EF41E050E09F
:100D40000E94E00649015A019B01AC01A7EAB1E407
:100D50000E94FF066B017C01ACEEB4EFA50194018B
:100D60000E940D07DC01CB018C0D9D1DAE1DBF1D2A
:100D7000B7FF03C00197A109B04888839983AA836C
:100D8000BB839F77DF91CF91FF90EF90DF90CF9063
:100D9000BF90AF909F908F9008950E948406089511
:100DA00080E690E00E9484060895A0E0B0E0809381
:100DB000600090936100A0936200B0936300089577
:100DC000052E97FB1EF400940E94F70657FD07D0EE
:100DD0000E94120707FC03D04EF40C94F7065095BE
:100DE0004095309521953F4F4F4F5F4F0895909517
:100DF0008095709561957F4F8F4F9F4F08950E940A
:100E00006106A59F900DB49F900DA49F800D911D2C
:100E100011240895B7FF0C94FF060E94FF06821B61
:100E2000930B0895A1E21A2EAA1BBB1BFD010DC056
:100E3000AA1FBB1FEE1FFF1FA217B307E407F5078A
:100E400020F0A21BB30BE40BF50B661F771F881F66
:100E5000991F1A9469F760957095809590959B01FC
:0C0E6000AC01BD01CF010895F894FFCF54
:100E6C00010000000641594ED3004142434445461F
:100E7C004748494A4B4C4D4E4F505152535455567E
:100E8C005758595AD800E200ED00FB0003010D0140
:100E9C001601596F7520776F6E2100506C617920A7
:100EAC00616761696E3F2000592F4E00596F7520A4
:100EBC006C6F73742100545920464F5220504C4192
:100ECC0059494E47210052455354415254202D202C
:100EDC0042330057415344004B4E4F574C45444707
:100EEC004500534349454E544946494300545241E9
:100EFC004E534D55544154494F4E0053414D55524C
:100F0C0041490053594E455247495354004F564599
:100F1C00524C4F52440044454D49555247450000F0
:00000001FF
